:1000000000308A00FB290000FF00030E8301A100DD
:100010000A08A0008A010408A2007708A300780853
:10002000A4007908A5007A08A6007B08A70083131E
:1000300083128C308400801E1F288C1A32282208DC
:1000400084002308F7002408F8002508F900260892
:10005000FA002708FB0020088A00210E8300FF0E0B
:100060007F0E09008A110A1299290A108A100A11B2
:1000700082074534723472346F347234203434342D
:100080003034343400340A108A100A1182074E3496
:100090006F347434203446346F3475346E346434C1
:1000A000213400340A108A100A11820745346C3456
:1000B000203476346F346C34743461346A3465348B
:1000C0002034653473343A3400340A108A100A112B
:1000D00082072E3400340A108A100A1182075B341A
:1000E00056345D3400340A108A100A1182074E34E7
:1000F0006F3420346D346534203471347534693490
:10010000653472346F3420346934723400340A1028
:100110008A100A118207733465346E3469346F347F
:100120007234203453347434613472346B34203478
:100130003A342C34283400340A108A100A11820709
:1001400048346F346C3461342034503472346F343A
:100150006634653420343A34293400340A108A1065
:100160000A1182074F347034633469346F346E344B
:100170002034313400340A108A100A1182074C34BA
:10018000653464342734733400340A108A100A1139
:1001900082074F347034633469346F346E342034E2
:1001A000323400340A108A100A1182074C34433466
:1001B000443400340A108A100A1182074F34703414
:1001C000633469346F346E342034333400340A10AD
:1001D0008A100A11820743346F346E3476346534E2
:1001E00072347434693464346F34723400340A10F5
:1001F0008A100A11FE3E03188A0A82004F347034B6
:10020000633469346F346E342034343400340A1467
:100210008A100A118207503457344D34003441306B
:1002200084000008031921290630F800F701F70BB4
:100230001729F80B16297B30F700F70B1D29800BC7
:100240001429003400308316860083123F0886008C
:1002500083160813831208138316881283128812D8
:1002600083168813831288170A30C1000F21831662
:10027000881383128813003483160813831208131B
:100280003830BF0022210130BF0022210C30BF00D6
:1002900022213C30BF0022218030BF0022210E30BD
:1002A000BF0022218316081383120817AA01AB018D
:1002B00000340030831686008312400886008316BF
:1002C0000813831208178316881283128812831664
:1002D0008813831288170A30C1000F2183168813F0
:1002E0008312881300348316081383120813C03056
:1002F000BF002221831608138312081700343C2103
:10030000BF013F087320003803198A29BF0AC000C3
:10031000592181297321BF013F0887200038031923
:100320009529BF0AC00059218C29C830C1000F216E
:1003300000348C1E99291A08B0003008243C031D93
:10034000A4297F218A0100288C128A110A121F28F1
:10035000F701F8013C0803103D18F707F70CF80CFB
:10036000BD18F707F70CF80C3D19F707F70CF80C58
:10037000BD19F707F70CF80C3D1AF707F70CF80C46
:10038000BD1AF707F70CF80C3D1BF707F70CF80C34
:10039000BD1BF707F70CF80C0034BA103A088316A7
:1003A0008700831287100C309D000030F80006385B
:1003B00092002C08831692000730F700F71DEA29F7
:1003C000073083128101813084000008C0390F3862
:1003D000800083166400813084000008C0397704EF
:1003E00080008C16C03083128B0430089B00F529E6
:1003F0008A110A12282D84011F30830506308316C6
:100400009F00073083129F008130831699002630A9
:100410009800903083129800FF30AC00AD01AE011F
:10042000BA00A8018B1BA8178B133C21A81B8B17A4
:10043000BB013B089C2000380319282ABB0AA801ED
:100440008B1BA8178B13C0005921A81B8B17192AC7
:100450008C1E282A1A08B9003908243C031D392AA1
:10046000A8018B1BA8178B137F21A81B8B178A0150
:1004700000283908F8007808B9003908F70030304A
:1004800077020319502A3130770203195B2B32307F
:1004900077020319122C333077020319F92C292D16
:1004A000A8018B1BA8178B133C21A81B8B17BB0122
:1004B0003B08AE2000380319672ABB0AA8018B1B32
:1004C000A8178B13C0005921A81B8B17582AA80105
:1004D0008B1BA8178B137321A81B8B17BB013B0821
:1004E000BB20003803197E2ABB0AA8018B1BA81762
:1004F0008B13C0005921A81B8B176F2A8C1E7E2AD4
:100500001A08B9003908243C031D8F2AA8018B1B47
:10051000A8178B137F21A81B8B178A010028390885
:10052000F8007808B9003908F7003030770203196D
:10053000AA2A313077020319BA2A32307702031916
:10054000C92A333077020319F82A343077020319A5
:10055000282B462B0030831688001F30831288001A
:10056000A8018B1BA8178B13C830C1000F21A81B33
:100570008B17592B00308316880083128801A8013D
:100580008B1BA8178B13C830C1000F21A81B8B171A
:10059000592B1030AF002F0BCE2AE42A00308316DF
:1005A000880083122F0888000230BB00A8018B1B33
:1005B000A8178B13FA30C1000F21A81B8B17BB0B98
:1005C000D62A2F0CAF0CCB2A00308316880083125A
:1005D0002F0888000230BB00A8018B1BA8178B13C3
:1005E000FA30C1000F21A81B8B17BB0BEC2A592B2B
:1005F0000130AF002F08103C0319142B0030831674
:10060000880083122F0888000230BB00A8018B1BD2
:10061000A8178B13FA30C1000F21A81B8B17BB0B37
:10062000062B2F0DAF0DFA2A003083168800831297
:100630002F0888000230BB00A8018B1BA8178B1362
:10064000FA30C1000F21A81B8B17BB0B1C2B592B99
:1006500000308316880083128801A8018B1BA8171D
:100660008B13C830C1000F21A81B8B1700308316D5
:1006700088001F3083128800A8018B1BA8178B13DA
:10068000C830C1000F21A81B8B17592B39081F3CFC
:10069000031C592B00308316880083123908880008
:1006A000A8018B1BA8178B13C830C1000F21A81BF2
:1006B0008B177E2A572DA8018B1BA8178B133C2163
:1006C000A81B8B17BB013B08C52000380319722BF0
:1006D000BB0AA8018B1BA8178B13C0005921A81BAC
:1006E0008B17632BA8018B1BA8178B137321A81BD7
:1006F0008B17BB013B08D22000380319892BBB0A9A
:10070000A8018B1BA8178B13C0005921A81B8B179E
:100710007A2B0030831686008312A8018B1BA81742
:100720008B136430C1000F21A81B8B170030831678
:10073000860083128601A8018B1BA8178B136430D7
:10074000C1000F21A81B8B17A8018B1BA8178B13A7
:100750003C21A81B8B178C1EAB2B1A08B90039083B
:10076000243C031DBC2BA8018B1BA8178B137F21D6
:10077000A81B8B178A0100283908F8007808B900EF
:100780000130AA073908F70021307702031DD02B6A
:10079000A8018B1BA8178B133C21A81B8B17102CAF
:1007A0002A08113C031DFE2BAB08031DEB2B8316FF
:1007B000081383120813A8018B1BA8178B13C030D2
:1007C000BF002221A81B8B1783160813831208175A
:1007D0000130AB00FD2B8316081383120813A80108
:1007E0008B1BA8178B138030BF002221A81B8B17EF
:1007F0008316081383120817AB01AA01A8018B1BEB
:10080000A8178B133908C0005921A81B8B17A80102
:100810008B1BA8178B136430C1000F21A81B8B17EB
:10082000AB2B572DA8018B1BA8178B133C21A81BA2
:100830008B17BB013B08DA2000380319292CBB0AAF
:10084000A8018B1BA8178B13C0005921A81B8B175D
:100850001A2CA8018B1BA8178B137321A81B8B17AD
:10086000BB013B08E72000380319402CBB0AA80154
:100870008B1BA8178B13C0005921A81B8B17312C79
:1008800083169F0183121F083839C1389F0000303A
:10089000F8001F08C73978049F008C1E4D2C1A08D9
:1008A000B9003908243C031D5E2CA8018B1BA81736
:1008B0008B137F21A81B8B178A0100283908F800A9
:1008C0007808B9002130F700F70B642C1F151F19A9
:1008D000672C1E08B1002130F700F70B6D2C310892
:1008E000BB003030B200B300B4003B08323C031808
:1008F0007E2C3330BB020130B207752C3B08BC00A4
:100900000A30BD00A8217808BB003B08323C031820
:100910008E2C3330BB020130B307852C3B08BC0062
:100920000A30BD00A8217808BB003B08323C031800
:100930009E2C3330BB020130B407952CA8018B1BD1
:10094000A8178B133C21A81B8B17BC013C08522015
:1009500000380319B52CBC0AA8018B1BA8178B13F0
:10096000C0005921A81B8B17A62CA8018B1BA81708
:100970008B137321A81B8B17A8018B1BA8178B1334
:100980003208C0005921A81B8B17BC013C08652008
:1009900000380319D52CBC0AA8018B1BA8178B1390
:1009A000C0005921A81B8B17C62CA8018B1BA817A8
:1009B0008B133308C0005921A81B8B17A8018B1B70
:1009C000A8178B133408C0005921A81B8B17BC0132
:1009D0003C086B2000380319F72CBC0AA8018B1BBC
:1009E000A8178B13C0005921A81B8B17E82C4D2C7E
:1009F000572DA8018B1BA8178B133C21A81B8B1705
:100A0000BB013B08F72000380319102DBB0AA801D1
:100A10008B1BA8178B13C0005921A81B8B17012D06
:100A2000A8018B1BA8178B137321A81B8B17BB0165
:100A30003B08072100380319272DBB0AA8018B1B8F
:100A4000A8178B13C0005921A81B8B17182DCD296F
:100A5000572DA8018B1BA8178B133C21A81B8B17A4
:100A6000BB013B08352000380319402DBB0AA80103
:100A70008B1BA8178B13C0005921A81B8B17312D76
:100A8000A8018B1BA8178B137321A81B8B17BB0105
:100A90003B08432000380319572DBB0AA8018B1BC4
:100AA000A8178B13C0005921A81B8B17482D282A83
:020AB0006300E1
:023E000000348C
:02400E00FA3F77
:00000001FF
;PIC16F877A
