:020000040000FA
:020000000528D1
:06000A0092209F20062851
:10001000ED240B2529254725080065258325A125E5
:10002000BF250800DD25FB251926372608005526A3
:1000300073269126AF260800CD26EB260927272711
:1000400008004527632781279F2708001D223B22A0
:100050005922772208009522B322D122EF220800EC
:100060000D232B234923672308008523A323C123C2
:10007000DF230800FD231B2439245724080075249E
:100080009324B124CF240800B501B401B3011E08A4
:100090001E07B50064303502031C5128B500B50AAF
:1000A0004A280A303502031C5828B500B40A5128E2
:1000B0003508B300B5013030B304B404B50408000A
:1000C00030304006031908203130400603190D2056
:1000D000323040060319122033304006031917202E
:1000E0003430400603191C20353040060319212006
:1000F0000800303034060319262031303406031945
:100100002B203230340603193020333034060319E3
:1001100035203430340603193A20353034060319BB
:100120003F2008008501860188018316031386019C
:10013000013088009F013F30850083120800081CB1
:10014000A328AD280800C130B720CC2008216020AA
:10015000252159213D218A21A228D930B7204420C8
:10016000082179202521BB213D21EC21A2289F00D7
:100170001F154B211F19BA281E0808002208A107C5
:100180000318C820A30A09302306031DBE2808004F
:1001900001302007A0000800A1000030C000A0002E
:1001A000A300C100C200A20033302102031CDB28DF
:1001B000A100C00AD4282108A200BE2033302102A9
:1001C000031CE528A100C10ADE28A200013020029C
:1001D000031CED28A0002208E2280030A30021081B
:1001E000A200BE2033302102031CF928A100C20A5C
:1001F000F228A20001302002031D0129A0002208DC
:10020000F6283030C0073030C1073030C207080050
:100210001E08A600F030A605260EA6001721C30072
:100220001E08A6000F30A6051721C40008000930DB
:100230002602031C1F2903191F2922290800303018
:1002400026071E29373026071E2908133830860056
:1002500034210130860034210C30860034213C30BA
:10026000860034210817080088174221422188138C
:10027000422108000817342108000813C030860006
:10028000342108006430B200FF30B100B10B4629C0
:10029000B20B442908002130B000B00B4D290800F2
:1002A000FF30B200FF30B100B10B5429B20B52291C
:1002B0000800563086003A216F3086003A216C30B3
:1002C00086003A213A3086003A21400886003A21D9
:1002D0002E3086003A21410886003A2142088600E5
:1002E0003A21563086003A21203086003A212030CB
:1002F00086003A21203086003A21203086003A21BB
:10030000203086003A21003086003A2104308600F1
:100310003A210800483086003A21653086003A21AB
:10032000783086003A213A3086003A214308860028
:100330003A21440886003A21203086003A212030B4
:1003400086003A21203086003A21203086003A216A
:10035000203086003A21203086003A212030860065
:100360003A21203086003A21023086003A210630B8
:1003700086003A210800543086003A216530860014
:100380003A216D3086003A21703086003A213A30A9
:1003900086003A21350886003A21340886003A2141
:1003A000330886003A21203086003A21203086002A
:1003B0003A21203086003A21203086003A21203030
:1003C00086003A21203086003A21003086003A210A
:1003D000043086003A210800483086003A21653012
:1003E00086003A21783086003A213A3086003A2158
:1003F000430886003A21440886003A2120308600CE
:100400003A21203086003A21203086003A212030DF
:1004100086003A21203086003A21203086003A2199
:10042000203086003A21203086003A2102308600B2
:100430003A21063086003A21080008134030860031
:10044000342108170130860034210230860034211F
:1004500002308600342102308600342102308600CA
:1004600034210230860034210230860034210230EB
:100470008600342108000813503086003421081704
:100480000230860034210430860034210830860092
:100490003421103086003421103086003421103091
:1004A000860034210830860034210730860034214C
:1004B00008000813603086003421081710308600C9
:1004C0003421083086003421083086003421083079
:1004D000860034210830860034210830860034211B
:1004E00008308600342108308600342108000813C3
:1004F000703086003421081708308600342104301B
:1005000086003421023086003421013086003421F7
:10051000013086003421013086003421023086000B
:1005200034211C3086003421080008134030860036
:10053000342108170130860034210230860034212E
:1005400002308600342102308600342102308600D9
:1005500034210230860034210230860034210230FA
:100560008600342108000813503086003421081713
:1005700002308600342104308600342108308600A1
:1005800034211030860034211830860034211F3089
:10059000860034210F308600342107308600342154
:1005A00008000813603086003421081710308600D8
:1005B0003421083086003421083086003421083088
:1005C000860034210830860034210830860034212A
:1005D00008308600342108308600342108000813D2
:1005E000703086003421081708308600342104302A
:1005F0008600342102308600342101308600342107
:100600000330860034211F30860034211E308600DE
:1006100034211C3086003421080008134030860045
:10062000342108170130860034210230860034213D
:1006300002308600342102308600342102308600E8
:100640003421023086003421023086003421023009
:100650008600342108000813503086003421081722
:1006600002308600342104308600342108308600B0
:1006700034211830860034211F30860034211F3089
:10068000860034210F308600342107308600342163
:1006900008000813603086003421081710308600E7
:1006A0003421083086003421083086003421083097
:1006B0008600342108308600342108308600342139
:1006C00008308600342108308600342108000813E1
:1006D0007030860034210817083086003421043039
:1006E0008600342102308600342103308600342114
:1006F0001F30860034211F30860034211E308600D2
:1007000034211C3086003421080008134030860054
:10071000342108170130860034210230860034214C
:1007200002308600342102308600342102308600F7
:100730003421023086003421023086003421023018
:100740008600342108000813503086003421081731
:100750000230860034210430860034210C308600BB
:1007600034211F30860034211F30860034211F3091
:10077000860034210F308600342107308600342172
:1007800008000813603086003421081710308600F6
:1007900034210830860034210830860034210830A6
:1007A0008600342108308600342108308600342148
:1007B00008308600342108308600342108000813F0
:1007C0007030860034210817083086003421043048
:1007D000860034210630860034211F308600342103
:1007E0001F30860034211F30860034211E308600E1
:1007F00034211C3086003421080008134030860064
:10080000342108170130860034210230860034215B
:100810000230860034210230860034210230860006
:100820003421023086003421023086003421023027
:100830008600342108000813503086003421081740
:100840000230860034210730860034210F308600C4
:1008500034211F30860034211F30860034211F30A0
:10086000860034210F308600342107308600342181
:100870000800081360308600342108171030860005
:1008800034210830860034210830860034210830B5
:100890008600342108308600342108308600342157
:1008A00008308600342108308600342108000813FF
:1008B00070308600342108170830860034211C303F
:1008C000860034211E30860034211F3086003421FA
:1008D0001F30860034211F30860034211E308600F0
:1008E00034211C3086003421080008134030860073
:1008F000342108170130860034210330860034216A
:100900000330860034210330860034210330860012
:100910003421033086003421033086003421023034
:10092000860034210800081350308600342108174F
:100930000330860034210730860034210F308600D2
:1009400034211F30860034211F30860034211F30AF
:10095000860034210F308600342107308600342190
:100960000800081360308600342108171030860014
:100970003421183086003421183086003421183094
:100980008600342118308600342118308600342146
:1009900018308600342118308600342108000813EE
:1009A00070308600342108171830860034211C303E
:1009B000860034211E30860034211F308600342109
:1009C0001F30860034211F30860034211E308600FF
:1009D00034211C3086003421080008134030860082
:1009E0003421081703308600342102308600342178
:1009F0000230860034211E308600342110308600FB
:100A0000342110308600342110308600342110301B
:100A1000860034210800081350308600342108175E
:100A200010308600342110308600342110308600CA
:100A300034211030860034211030860034211030EB
:100A4000860034211030860034211F308600342186
:100A5000080008136030860034210817183086001B
:100A600034210830860034210830860034210F30CC
:100A70008600342101308600342101308600342183
:100A8000013086003421013086003421080008132B
:100A9000703086003421081701308600342101307F
:100AA0008600342101308600342101308600342153
:100AB0000130860034210130860034210130860067
:100AC00034211F308600342108000813403086008E
:100AD0003421081703308600342102308600342187
:100AE0000230860034211E3086003421103086000A
:100AF000342110308600342110308600342110302B
:100B0000860034210800081350308600342108176D
:100B100010308600342110308600342110308600D9
:100B200034211030860034211130860034211F30EA
:100B3000860034211F30860034211F308600342186
:100B4000080008136030860034210817183086002A
:100B500034210830860034210830860034210F30DB
:100B60008600342101308600342101308600342192
:100B7000013086003421013086003421080008133A
:100B8000703086003421081701308600342101308E
:100B90008600342101308600342101308600342162
:100BA0001130860034211F30860034211F3086002A
:100BB00034211F308600342108000813403086009D
:100BC0003421081703308600342102308600342196
:100BD0000230860034211E30860034211030860019
:100BE000342110308600342110308600342110303A
:100BF000860034210800081350308600342108177D
:100C000010308600342110308600342117308600E1
:100C100034211F30860034211F30860034211F30DC
:100C2000860034211F30860034211F308600342195
:100C30000800081360308600342108171830860039
:100C400034210830860034210830860034210F30EA
:100C500086003421013086003421013086003421A1
:100C60000130860034210130860034210800081349
:100C7000703086003421081701308600342101309D
:100C8000860034211D30860034211F308600342137
:100C90001F30860034211F30860034211F3086002B
:100CA00034211F30860034210800081340308600AC
:100CB00034210817033086003421023086003421A5
:100CC0000230860034211E30860034211030860028
:100CD0003421103086003421103086003421103049
:100CE000860034210800081350308600342108178C
:100CF0001F30860034211F30860034211F308600CB
:100D000034211F30860034211F30860034211F30EB
:100D1000860034211F30860034211F3086003421A4
:100D20000800081360308600342108171830860048
:100D300034210830860034210830860034210F30F9
:100D400086003421013086003421013086003421B0
:100D50000130860034210130860034210800081358
:100D600070308600342108171F30860034211F3070
:100D7000860034211F30860034211F308600342144
:100D80001F30860034211F30860034211F3086003A
:100D900034211F30860034210800081340308600BB
:100DA00034210817033086003421023086003421B4
:100DB0000230860034211E30860034211030860037
:100DC00034211330860034211F30860034211F3037
:100DD000860034210800081350308600342108179B
:100DE0001F30860034211F30860034211F308600DA
:100DF00034211F30860034211F30860034211F30FB
:100E0000860034211F30860034211F3086003421B3
:100E10000800081360308600342108171830860057
:100E200034210830860034210830860034210F3008
:100E300086003421013086003421193086003421A7
:100E40001F30860034211F3086003421080008132B
:100E500070308600342108171F30860034211F307F
:100E6000860034211F30860034211F308600342153
:100E70001F30860034211F30860034211F30860049
:100E800034211F30860034210800081340308600CA
:100E900034210817033086003421033086003421C2
:100EA0000330860034211F30860034211F30860035
:100EB00034211F30860034211F30860034211F303A
:100EC00086003421080008135030860034210817AA
:100ED0001F30860034211F30860034211F308600E9
:100EE00034211F30860034211F30860034211F300A
:100EF000860034211F30860034211F3086003421C3
:100F00000800081360308600342108171830860066
:100F100034211830860034211830860034211F30E7
:100F2000860034211F30860034211F308600342192
:100F30001F30860034211F3086003421080008133A
:100F400070308600342108171F30860034211F308E
:100F5000860034211F30860034211F308600342162
:100F60001F30860034211F30860034211F30860058
:0A0F700034211F30860034210800F0
:02400E00F23F7F
:00000001FF
