:1000000000308A0078280000FF00030E8301A10061
:100010000A08A0008A010408A2007708A300780853
:10002000A4007908A5007A08A6007B08A70083131E
:1000300083128C308400801E1F288C1A32282208DC
:1000400084002308F7002408F8002508F900260892
:10005000FA002708FB0020088A00210E8300FF0E0B
:100060007F0E09008A110A1235288C1E35281A08BD
:10007000AB002B08773C031D45280A30A90000304F
:10008000831686008312290886002B08613C031D15
:1000900051280630A90000308316860083122908F3
:1000A00086002B08733C031D5D280530A900003035
:1000B000831686008312290886002B08643C031DE2
:1000C00069280930A90000308316860083122908A8
:1000D00086002B08713C031D7428A901003083168B
:1000E00086008312290886008C128A110A121F28A2
:1000F00084011F308305063083169F0081309900EC
:1001000026309800903083129800FF30A800AC0091
:10011000AC102C0883168700831287100C309D00CA
:100120000030F80006389200280883169200073045
:10013000F700F71DA5280730831281018130840064
:100140000008C0390F3880008316640081308400B5
:100150000008C039770480008C16C03083128B04ED
:100160008C1EB0281A08AA002A089B00B028630039
:023E000000348C
:02400E00FE3F73
:00000001FF
;PIC16F877
