:020000040000FA
:020000000528D1
:08000800532830208C1E06284D
:100010001A0877301A0603191D2861301A060319C9
:10002000212871301A060319252864301A0603198D
:10003000282873301A0603192C280A308600462017
:10004000062809308600462006280030860006284B
:100050000630860046200628053086004620062801
:1000600086018316031386010C141815813099003C
:1000700018129816831231309000981718160B1723
:100080008B170C10A901B001B10108001030A100BC
:10009000D000A2006030A300A30B4C28A20B4A287A
:1000A000A10B482808000C1C5B28A90AFF30290670
:1000B00003195B280C10B00A8E303006031D0900AE
:1000C000B001B10A04303106031D0900860166281B
:00000001FF
