:020000040000FA
:020000000528D1
:06000A0030208C1E0628C8
:100010001A0877301A0603191D2861301A060319C9
:10002000212871301A060319252864301A0603198D
:10003000282873301A0603192C280A3086003D2020
:100040000628093086003D20062800308600062854
:10005000063086003D200628053086003D20062813
:100060008601831603138601181581309900181232
:10007000981683129817181608001030A100D000A7
:10008000A2006030A300A30B4328A20B4128A10BC0
:040090003F280800FD
:02400E00F23F7F
:00000001FF
