:020000040000FA
:020000000528D1
:06000A000B2018201C2051
:1000100020202420062886018801850183160313E9
:100020008601880106309F003F308500831208005A
:10003000653086003B2008006430860041200800BF
:10004000563086003B200800463086004A200800D3
:100050000A30B3001030B2003408B100FF30B000F5
:10006000B00B3028B10B2E28B20B2C2820088606A6
:10007000B30B2A2808000030A000FF30B40028206D
:1000800008000330A000FF30B40028204F30B40037
:10009000282008003030A000FF30B40028204F3066
:0600A000B4002820080056
:02400E00F23F7F
:00000001FF
