:020000040000FA
:020000004B288B
:06000A008316031306300B
:100010009F003F308500860188018312850186019B
:1000200088013E283120803088003120003088004F
:100030003120312008003120C030880031200030CC
:1000400088003120312008000330A100FF30A200D9
:10005000FF30A300A30B2A28A20B2828A10B2628D7
:1000600008000630A100FF30A200FF30A300A30B60
:100070003728A20B3528A10B3328080008130130BC
:10008000860012200C30860012203C3086001220A0
:0E00900008174B203E28413086001B20080038
:00000001FF
