:020000040000FA
:020000000528D1
:06000A0076228030B200F6
:10001000C030B4008F30B300CF30B5005A200E2866
:100020000813383086001F20013086001F200C3056
:1000300086001F203C3086001F2008170800881704
:100040002D202D2088132D20080008171F200800C0
:100050000813C03086001F2008009630B10096308B
:10006000B000B00B3128B10B2F2808000813013065
:1000700086001F20320886001F203C3086001F208B
:10008000081708000813340886001F200817080006
:100090000813013086001F20330886001F203C30E3
:1000A00086001F20081708000813350886001F2047
:1000B000081708000030050203196B200130050203
:1000C000031970200230050203197F200330050256
:1000D00003198E20080010209E202820BD20080033
:1000E00036209E204220BD20B20AB40A903032024F
:1000F00003199220D03034020319952008004820BB
:100100009E205420BD20B303B5037F303302031972
:100110009820BF30350203199B2008005822102078
:10012000E82008008030B2000800C030B4000800A9
:100130008F30B3000800CF30B50008005230860081
:1001400025204130860025204D3086002520533063
:100150008600252045308600252053308600252046
:10016000203086002520D73086002520D03086001C
:1001700025202030860025200800433086002520D9
:1001800041308600252053308600252054308600DB
:1001900025205230860025204F3086002520203033
:1001A000860025204D30860025204F3086002520F2
:1001B0004C30860025204130860025204E308600B8
:1001C00025204F308600252020308600252008007D
:1001D0000030860025200030860025200030860073
:1001E0002520003086002520203086002520203064
:1001F00086002520203086002520203086002520FE
:1002000020308600252020308600252020308600E2
:100210002520203086002520003086002520003053
:10022000860025200030860025200030860025200D
:1002300028202030860025202030860025202030F0
:1002400086002520203086002520003086002520CD
:1002500000308600252000308600252000308600F2
:100260002520003086002520003086002520003023
:10027000860025200030860025202030860025209D
:100280002030860025202030860025202030860062
:10029000252008000813503086001F200817003062
:1002A00086001F20033086001F20073086001F2095
:1002B0000E3086001F201D3086001F20193086005A
:1002C0001F201D3086001F200F3086001F200800D1
:1002D0000813483086001F200817003086001F20B2
:1002E0001F3086001F201F3086001F201830860018
:1002F0001F20103086001F20103086001F201F3066
:1003000086001F201F3086001F2008000813403081
:1003100086001F200817003086001F201F3086002F
:100320001F201F3086001F20063086001F2003304C
:1003300086001F20013086001F201F3086001F20EE
:100340001F3086001F2008000813403086001F2041
:100350000817003086001F20183086001F201E302E
:1003600086001F201E3086001F20173086001F20A9
:10037000033086001F20073086001F2016308600BD
:100380001F2008000813403086001F200817073080
:1003900086001F20033086001F20013086001F20AA
:1003A000003086001F20003086001F2000308600AD
:1003B0001F20003086001F20003086001F2008000C
:1003C0000813403086001F200817003086001F20C9
:1003D000163086001F201F3086001F201C3086002C
:1003E0001F200E3086001F20073086001F2003309C
:1003F00086001F20013086001F20080008134030AF
:1004000086001F200817003086001F200D30860050
:100410001F201F3086001F20073086001F200E304F
:1004200086001F201C3086001F20183086001F20E9
:10043000103086001F2008000813403086001F205F
:1004400008171C3086001F20183086001F2010302F
:1004500086001F20003086001F20003086001F20ED
:10046000003086001F20003086001F2000308600EC
:100470001F2008000813403086001F200817043092
:1004800086001F200A3086001F200A3086001F20A9
:100490001F3086001F201F3086001F200A30860074
:1004A0001F200A3086001F20043086001F2008000D
:1004B0000813403086001F200817043086001F20D4
:1004C0000A3086001F20113086001F201F30860052
:1004D0001F201B3086001F20113086001F20153082
:1004E00086001F20153086001F2008008501860128
:1004F0008801831603138601880106309F003F3070
:06050000850083120800D3
:02400E00F23F7F
:00000001FF
